:020000040800F2
:10000000500D0020C5010008CB030008EB020008DA
:10001000C903000863020008710C0008000000001A
:10002000000000000000000000000000250A000899
:100030006502000800000000070A0008610B0008C4
:10004000DF010008DF010008DF010008DF01000810
:10005000DF010008DF010008DF010008DF01000800
:10006000DF010008DF010008DF010008DF010008F0
:10007000DF010008DF010008DF010008DF010008E0
:10008000DF010008DF010008DF010008DF010008D0
:10009000DF010008DF010008DF010008DF010008C0
:1000A000DF010008DF010008DF010008DF010008B0
:1000B000DF010008DF010008DF010008DF010008A0
:1000C000DF010008DF010008DF010008DF01000890
:1000D000DF010008C10B0008DF010008DF01000894
:1000E000DF010008DF010008DF010008DF01000870
:1000F000DF010008DF010008DF010008DF01000860
:10010000DF010008DF010008DF010008DF0100084F
:10011000DF010008DF010008DF010008DF0100083F
:10012000DF010008DF010008DF010008DF0100082F
:10013000DF010008DF010008DF010008DF0100081F
:10014000DF010008DF010008DF010008DF0100080F
:10015000DF010008DF010008DF010008DF010008FF
:10016000DF010008DF010008DF010008DF010008EF
:10017000DF010008DF010008DF010008DF010008DF
:10018000DF010008DF010008DF010008DF010008CF
:10019000DF010008DF010008DF010008DF010008BF
:1001A000DF010008DF010008DF010008DFF810D0E0
:1001B00000F01AF800480047250D0008AFF3008052
:1001C000500D00200648804706480047FEE7FEE73E
:1001D000FEE7FEE7FEE7FEE7FEE7FEE7FEE7FEE7F7
:1001E000650B0008AD010008064C074D06E0E0680D
:1001F00040F0010394E8070098471034AC42F6D36E
:10020000FFF7D8FF142D0008342D000870B58C18A6
:1002100010F8015B15F0070301D110F8013B2A111A
:1002200006D110F8012B03E010F8016B01F8016B07
:100230005B1EF9D12B0705D40023521E0DD401F803
:10024000013BFAE710F8013BCB1A921C03E013F8CC
:10025000015B01F8015B521EF9D5A142D8D3002001
:1002600070BDFEE770472DE9F041002201274FF0F5
:10027000030C07FA02F50B682B40AB422CD1066841
:1002800053000CFA03F4A64306600E79D0F8008000
:100290009E4046EA080606600E79012E01D0022E25
:1002A00012D18668A64386604E79D0F808809E40B9
:1002B00046EA080686604668AE43466045688E7921
:1002C0009640B6B235434560C568A543C560CC7954
:1002D0009C40C3681C43C460521C102AC9D3BDE8AB
:1002E000F0814183704701837047FEE710B50C4CE5
:1002F00080212046FFF7F7FF40212046FFF7F3FF5C
:1003000000F03CF880212046FFF7EBFF00F036F8C4
:1003100040212046FFF7E5FFBDE8104000F02EB871
:100320000004024010B5084C80212046FFF7D9FF99
:1003300040212046FFF7D7FF00F020F82046BDE817
:1003400010408021FFF7CFBF0004024010B50A4CD7
:1003500080212046FFF7C7FF00F010F8402120461B
:10036000FFF7C1FF00F00AF840212046FFF7B9FF70
:10037000BDE8104000F002B8000402400A20401E10
:10038000C0B2FCD2704700001CB50121802000F0F3
:100390003BFB4FF44064009401208DF804000022E0
:1003A0008DF8062003228DF805208DF80700694698
:1003B0000348FFF758FF21460248FFF794FF1CBD92
:1003C000001C024000140240FEE7704730B40021D8
:1003D000084B0022002003EBC0046254401CC0B252
:1003E0008028F8D3491CC9B20829F3D330BC00F0E7
:1003F000D5B800000804002030B5CB0801F0070490
:100400000125A540ECB2074D05EBC005C808002A40
:10041000285C02D02043E85430BDC0432043C04391
:10042000E85430BD080400202DE9FC4101210A20D8
:1004300000F0EAFA8020009001248DF804408DF845
:10044000064003258DF805508DF807404D4E69464E
:100450003046FFF708FF1020009000208DF80600BE
:10046000494F69463846FFF7FEFE402000908DF860
:1004700004408DF806408DF805508DF80740694618
:100480003046FFF7F0FE10213846FFF72AFFC8205C
:1004900000F014FC10213846FFF725FF0021AE20A4
:1004A00000F094FA0021084600F090FA0021102094
:1004B00000F08CFA0021402000F088FA0021812011
:1004C00000F084FA0021CF2000F080FA0021A12062
:1004D00000F07CFA0021C82000F078FA0021A62064
:1004E00000F074FA0021A82000F070FA00213F20EB
:1004F00000F06CFA0021D32000F068FA00210846D1
:1005000000F064FA0021D52000F060FA002180207C
:1005100000F05CFA0021D92000F058FA0021F12007
:1005200000F054FA0021DA2000F050FA00211220E5
:1005300000F04CFA0021DB2000F048FA00214020B6
:1005400000F044FA0021202000F040FA00210220AF
:1005500000F03CFA00218D2000F038FA0021142030
:1005600000F034FA0021A42000F030FA0021A62087
:1005700000F02CFAFFF72AFF0021AF2000F026FA46
:10058000BDE8FC8100040240000C0240034601204B
:1005900000E05843491EC9B2FBD2704770B5002530
:1005A000164E05F1B000C0B2002100F00FFA002194
:1005B000084600F00BFA0021102000F007FAFFF7C0
:1005C00095FE782000F030FAFFF7C0FE402000F0E2
:1005D0002BFAFFF7BBFE002406EBC400405D00F0E1
:1005E00023FAFFF7B3FE641CE4B2802CF4D3FFF7C8
:1005F00099FE6D1CEDB2082DD3D370BD0804002008
:1006000008B580460E46914600240025234F4DB97B
:100610001023224618218020CDF8009000F0BCF86D
:10062000641CE4B244451DD14FF0000A16E00124D9
:100630000023601E07EBC40207EBC000D15CC1546D
:100640005B1CDBB2082BF9D3641CE4B2902CEFD313
:10065000FFF7A4FF0AF1010A0AF0FF0ABAEB061F2E
:10066000E5D300246D1CEDB2102D00D10025012032
:100670000023421E07EBC00107EBC20211F803C0C2
:1006800002F803C05B1CDBB2082BF7D3401CC0B2DE
:100690009028EDD3FFF782FFB9E70000080400209F
:1006A0002DE9FC4F814688461D46CDF80090C34693
:1006B000082D03D0680704D0012003E00620019034
:1006C00006E0002000EBD50069084843C0B2019065
:1006D000203A02F0FF0A00264EE0082D14D00C2D1F
:1006E00019D0102D1ED0182D49D127490AEBCA0068
:1006F00001EB8000845D0027E00718D041464846A2
:100700000B9AFFF779FE19E020490AEB4A0001EB4A
:100710004000845DEFE71E490AEB4A0001EB8000D0
:10072000845DE8E71B4800EB0A10845DE3E70B9863
:1007300038B3002241464846FFF75EFE640808F1E0
:10074000010808F0FF087F1CFFB2082FD4D309F17D
:10075000010909F0FF09082D0BD00098A9EB000052
:10076000B0EB550F05D1DDF800900BF1080B0BF045
:10077000FF0BD846761CF6B201988642ADD3BDE891
:10078000FC8F0122D6E70000901B0008040F000830
:100790002C110008A01500082DE9FC4F8146884661
:1007A00092461E46CDF80490C346700701D0012042
:1007B00000E0002000EBD60070430090002549E0E7
:1007C000102E12D0182E15D0202E1BD0402E44D122
:1007D000244800EB4A20445D0027E00718D041463A
:1007E00048460B9AFFF708FE19E01F4800EB4A1035
:1007F000445DF1E71B490AEBCA00C83901EBC000B0
:10080000445DE9E71748803800EBCA10445DE3E730
:100810000B9820B3002241464846FFF7EDFD6408DF
:1008200008F1010808F0FF087F1CFFB2082FD4D39D
:1008300009F1010909F0FF090198A9EB0000B04294
:1008400005D1DDF804900BF1080B0BF0FF0BD84637
:100850006D1CADB200988542B2D3BDE8FC8F012279
:10086000D9E70000142B0008EC2800082DE9F84F08
:100870000746DDE90A698B46924698460025082E10
:1008800000D1022500241DE0A8EB0400401EC1B2E7
:100890000A20FFF77BFEBAFBF0F00A21B0FBF1F271
:1008A00001FB120090B13030C2B205EB560000FBE4
:1008B0000470C0B233465946CDF80090FFF7F0FE01
:1008C000641CE4B24445DFD3BDE8F88F05EB560065
:1008D00000FB0470C0B2334630225946CDF8009078
:1008E000FFF7DEFEECE72DE9FF4F81B006460F462D
:1008F0004FF0000A0096B946580701D0012000E0E9
:10090000002000EBD30004904FF0000B38E04FF0D4
:1009100000082EE00E9810F80A500AF1010A1FFA9A
:100920008AFA0024E80705D0394630460F9AFFF7C7
:1009300063FD06E00F9848B3002239463046FFF7C2
:100940005BFD6D087F1CFFB2641CE4B2082CE9D388
:10095000761CF6B20098311A0398814204D1009EA9
:1009600009F1080909F0FF094F4608F1010808F0EC
:10097000FF0803988045CDD30BF1010B0BF0FF0B63
:1009800004988345C3D305B0BDE8F08F0122D4E7B6
:100990002DE9F8410446884615461E46079F0BE0A0
:1009A0003346414620460097FFF77AFE082E0AD0CC
:1009B00004EB5600C4B26D1C2A78A2F120005E2818
:1009C000EED9BDE8F881A41DE4B2F4E770B50546A0
:1009D0000C46FFF78BFC782000F026F8FFF7B6FCFA
:1009E0001CB1402000F020F802E0002000F01CF8CC
:1009F000FFF7ACFC284600F017F8FFF7A7FCBDE8AE
:100A00007040FFF78FBC7047054A002903D011687A
:100A10000143116070471168814311607047000005
:100A2000303802407047000070B5054600240F4E74
:100A3000280604D580213046FFF755FC03E08021CD
:100A40003046FFF74EFCFFF799FC40213046FFF798
:100A50004AFCFFF793FC40213046FFF742FC680652
:100A6000050E641CE4B2082CE2D370BD0004024001
:100A70001CB50021019100912E4A106840F480308D
:100A800010604FF4A043106800F40030009001980B
:100A9000401C0190009810B901989842F3D1106859
:100AA000800302D50120009000E000910098012809
:100AB0003FD120484030016841F0805101601E491B
:100AC000086840F4404008601A4808300368036032
:100AD000036843F400430360036843F4A0530360D6
:100AE000041F164B2360136843F080731360136870
:100AF0009B01FCD50A6842F480320A604A68D2033E
:100B0000FCD50A6842F400320A604A689203FCD5B8
:100B10000B4A40F205711160016821F00301016088
:100B2000016841F0020101600168C1F381010229FD
:100B3000FAD11CBD0038024000700040195A40072D
:100B4000003C02404FF0E021042804D0086920F066
:100B5000040008617047086940F0040008617047AC
:100B60007047000010B51248016841F4700101603F
:100B70001048016841F0010101600E4A002108326D
:100B8000116002680C4B1A400260031D0B4A1A6088
:100B9000026822F48022026006480C300160FFF7F0
:100BA00067FF03494FF000608039086010BD000006
:100BB00088ED00E000380240FFFFF6FE1030002410
:100BC00070B5164C40F22551204600F02DF8002853
:100BD0000ED0204600F048F8C1B2114A1088030434
:100BE00006D444044FF0000307D50A2901D013802E
:100BF00070BD40F40040108070BD0D290AD0094D31
:100C0000C0F30D042955401C80B21080C728F3D9C9
:100C1000138070BD40F48040108070BD0010014012
:100C2000040400208808002070B5002440F66A12F1
:100C3000C1F3421301F01F05012606FA05F2012B4C
:100C40000CD0022B0DD0838A1340090A8E400088F5
:100C500030400BB100B10124204670BD83891340A0
:100C6000F3E7038A1340F0E78088C0F30800704779
:100C7000FEE702E008C8121F08C1002AFAD1704737
:100C80007047002001E001C1121F002AFBD170470C
:100C900010B504466FF00400FFF754FF0649E00862
:100CA000087000EB4002C2EBC0104FF6FF7202EA80
:100CB000C000488010BD00000004002070B54FF453
:100CC0000775B0FBF5F1CCB2B0FBF5F105FB1106F1
:100CD00004E0284600F00CF8641EE4B2002CF8D1C1
:100CE000002E04D03046BDE8704000F001B870BD61
:100CF0000B49498848434FF0E021486100238B614C
:100D0000086940F0010008610869C20701D0C0030A
:100D1000FAD5086920F0010008618B617047000076
:100D2000000400201CB52025A820FFF7B1FFFFF725
:100D30002BFBFFF779FB654900200860644E012416
:100D40004FF4FA774FF01008CDE9006400214023FA
:100D500080220846FFF7C7FDFFF720FC3846FFF763
:100D6000ADFFFFF733FB002210231146104600941D
:100D7000FFF712FD10230122002112200094FFF73B
:100D80000BFD10230222002124200094FFF704FD14
:100D900010230322002136200094FFF7FDFC1023CE
:100DA0000422002148200094FFF7F6FC10230522BE
:100DB00000215A200094FFF7EFFC102306220021A7
:100DC0006C200094FFF7E8FC102342A2194608208B
:100DD0000094FFF7DDFD102342A22021142000948F
:100DE000FFF7D6FD102342A2302100200094FFF728
:100DF000CFFD102340A230213F200094FFF7C8FD13
:100E0000302110232A4608460094FFF749FC6D1C48
:100E1000EDB27E2D00D92025CDE9008403232A469A
:100E200030216720FFF722FDFFF7B8FB3846FFF7B8
:100E300045FFFFF7CBFA002210231146104600941D
:100E4000FFF7AAFC00221823114610200094FFF798
:100E5000A3FC20230022142118200094FFF79CFCFF
:100E600040230022114618460094FFF795FCFFF737
:100E700095FB3846FFF722FFFFF7A8FA0021082369
:100E80001FA208460094FFF783FD0C231CA2082133
:100E900000200094FFF77CFD102319A214210020EC
:100EA0000094FFF775FD182315A22421002000945B
:100EB000FFF76EFDFFF772FB3846FFF7FFFE0122DA
:100EC00004210B20FFF79CFB3EE70000A882434271
:100ED000000000205A484F4E474A494E4759554155
:100EE0004E000000323032342F30332F30350000C6
:100EF00041534349493A0000434F44453A000000FA
:100F0000414243000000000000000000002F0000EC
:100F100000000700070000147F147F1400242A7FBC
:100F20002A1200626408132300364955225000003B
:100F30000503000000001C224100000041221C00AB
:100F40000014083E08140008083E0808000000A02D
:100F50006000000808080808000060600000002029
:100F600010080402003E5149453E0000427F400007
:100F7000004261514946002141454B31001814128D
:100F80007F10002745454539003C4A49493000015A
:100F90007109050300364949493600064949291EA9
:100FA000000036360000000056360000000814220B
:100FB000410000141414141400004122140800020B
:100FC0000151090600324959513E007C1211127C30
:100FD000007F49494936003E41414122007F41415D
:100FE000221C007F49494941007F09090901003E4F
:100FF0004149497A007F0808087F0000417F41008D
:10100000002040413F01007F08142241007F404002
:101010004040007F020C027F007F0408107F003EEA
:101020004141413E007F09090906003E4151215ED0
:10103000007F091929460046494949310001017FCD
:101040000101003F4040403F001F2040201F003F63
:101050004038403F00631408146300070870080715
:1010600000615149454300007F41410000552A5528
:101070002A55000041417F000004020102040040A3
:1010800040404040000001020400002054545478C5
:10109000007F4844443800384444442000384444E5
:1010A000487F00385454541800087E090102001883
:1010B000A4A4A47C007F080404780000447D4000C0
:1010C000004080847D00007F102844000000417FA4
:1010D0004000007C04180478007C08040478003880
:1010E0004444443800FC242424180018242418FC08
:1010F000007C0804040800485454542000043F4471
:101100004020003C4040207C001C2040201C003C33
:101110004030403C004428102844001CA0A0A07C83
:10112000004464544C4414141414141400000000BB
:1011300000000000000000000000FC0000000000B3
:1011400002000000000C020C020000000000000081
:1011500090D0BCD0BC900003000300001824FE44D3
:101160008C000302070201001824D8B04C80000351
:1011700000010201C038E438E0000102020102026D
:10118000080600000000000000000000000000F859
:101190000402000000010204000204F80000000440
:1011A000020100009060F860900000000100000063
:1011B0002020FC20200000000100000000000000B2
:1011C0000000080600000000202020202000000071
:1011D000000000000000000000000002000000000D
:1011E0000080601C0200040300000000F8040404F6
:1011F000F8000102020201000008FC0000000002E9
:1012000003020000188444241800030202020200B2
:1012100008042424D80001020202010040B088FC26
:1012200080000000000302003C242424C4000102CA
:1012300002020100F824242CC00001020202010075
:101240000C04E41C0400000003000000D824242443
:10125000D80001020202010038444444F8000003AF
:101260000202010000001000000000000200000067
:101270000000200000000000060000000020508850
:101280000402000000000102909090909000000085
:10129000000000000002048850200002010000004D
:1012A0001804C4241800000002000000F804E494AC
:1012B000F80001020202020000E09CF0800002033C
:1012C0000000030204FC2424D800020302020100EF
:1012D000F80404040C0001020202010004FC0404EE
:1012E000F80002030202010004FC24740C00020353
:1012F0000202030004FC24740C000203020000003C
:10130000F0080444CC4000010202010004FC20204B
:10131000FC040203000003020404FC0404000202B3
:1013200003020200000404FC040406040403000099
:1013300004FC24D00C0402030200030204FC040099
:101340000000020302020203FC3CC03CFC0003005C
:101350000300030004FC30C4FC0402030200030089
:10136000F8040404F80001020202010004FC242431
:101370001800020302000000F8848404F80001024F
:101380000207050004FC2464980002030200030223
:10139000182424448C000302020201000C04FC0403
:1013A0000C0000020302000004FC0000FC04000129
:1013B00002020100047C80E01C0400000300000025
:1013C0001CE03CE01C00000300030000049C609C47
:1013D0000400020300030200041CE01C04000002DD
:1013E000030200000C84641C0400020302020300D8
:1013F0000000FE020200000007040400000E30C0DE
:101400000000000000010200000202FE00000004D3
:1014100004070000000402040000000000000000B7
:10142000000000000000080808080808000002008A
:1014300000000000000000000040A0A0C00000016B
:101440000202030204FC2020C0000003020201008B
:1014500000C02020600000010202020000C0202421
:10146000FC0000010202030200C0A0A0C0000001B5
:10147000020202000020F8242404000203020200F9
:101480000040A0A0602000070A0A0A0404FC2020F3
:10149000C0000203020003020020E400000000027A
:1014A00003020000000020E4000008080807000014
:1014B00004FC80E020200203020003020404FC007C
:1014C0000000020203020200E020E020C00003004E
:1014D0000300030020E02020C000020302000302FA
:1014E00000C02020C00000010202010020E02020F6
:1014F000C000080F0A02010000C02020E000000127
:10150000020A0F0820E04020200002030200000031
:101510000060A0A020000002020203000020F820CA
:10152000000000000102020020E00020E0000001B5
:101530000202030220E0208060200000030100007E
:101540006080E08060000003000300002060806095
:10155000200002030003020020E020806020080831
:10156000070100000020A06020000002030202002A
:10157000000020DE0200000000070400000000FF61
:1015800000000000000F00000002DE200000000448
:101590000700000002010204040200000000000035
:1015A000000000000000000000000000000000003B
:1015B000000000F8000000000000003330000000D0
:1015C00000100C06100C06000000000000000000D7
:1015D00040C07840C0784000043F04043F04040049
:1015E000007088FC08300000001820FF211E000059
:1015F000F008F000E018000000211C031E211E006E
:1016000000F00888700000001E21232419272110F3
:1016100010160E0000000000000000000000000096
:10162000000000E01804020000000007182040003D
:1016300000020418E000000000402018070000002D
:10164000404080F0804040000202010F0102020091
:10165000000000F0000000000101011F0101010075
:10166000000000000000000080B0700000000000DA
:101670000000000000000000000101010101010163
:1016800000000000000000000030300000000000FA
:1016900000000000806018040060180601000000CF
:1016A00000E010080810E000000F102020100F00CC
:1016B000001010F8000000000020203F2020000053
:1016C00000700808088870000030282422213000AB
:1016D00000300888884830000018202020110E00B3
:1016E0000000C02010F8000000070424243F24005C
:1016F00000F80888880808000019212020110E0031
:1017000000E0108888180000000F112020110E0042
:1017100000380808C83808000000003F000000003A
:101720000070880808887000001C222121221C00FB
:1017300000E010080810E0000000312222110F0024
:10174000000000C0C00000000000003030000000B9
:101750000000008000000000000080600000000029
:101760000000804020100800000102040810200042
:10177000404040404040400004040404040404008D
:101780000008102040800000002010080402010022
:10179000007048080808F000000000303601000022
:1017A000C030C828E810E0000718272423140B00D5
:1017B0000000C038E0000000203C2302022738204F
:1017C00008F8888888700000203F202020110E0033
:1017D000C03008080808380007182020201008002A
:1017E00008F808080810E000203F202020100F0013
:1017F00008F88888E8081000203F202023201800DF
:1018000008F88888E8081000203F20000300000046
:10181000C03008080838000007182020221E0200E7
:1018200008F808000008F808203F210101213F20A6
:10183000000808F8080800000020203F20200000D1
:1018400000000808F8080800C08080807F000000C1
:1018500008F888C028180800203F200126382000FA
:1018600008F8080000000000203F20202020300061
:1018700008F8F800F8F80800203F003F003F20007B
:1018800008F830C00008F808203F200007183F0083
:10189000E01008080810E0000F10202020100F00B2
:1018A00008F808080808F000203F210101010000A5
:1018B000E01008080810E0000F18242438504F00EA
:1018C00008F8888888887000203F2000030C3020AA
:1018D00000708808080838000038202121221C00E8
:1018E000180808F8080818000000203F2000000031
:1018F00008F808000008F808001F202020201F001A
:101900000878880000C83808000007380E01000079
:10191000F80800F80008F800033C0700073C030043
:10192000081868808068180820302C03032C3020A9
:101930000838C800C83808000000203F2000000018
:1019400010080808C8380800203826212020180070
:10195000000000FE020202000000007F4040400044
:10196000000C30C000000000000000010638C0007C
:1019700000020202FE000000004040407F00000024
:101980000000040202020400000000000000000049
:101990000000000000000000808080808080808047
:1019A000000202040000000000000000000000002F
:1019B00000008080808000000019242222223F2025
:1019C00008F8008080000000003F112020110E0068
:1019D0000000008080800000000E112020201100F7
:1019E000000000808088F800000E112020103F20A9
:1019F0000000808080800000001F2222222213002D
:101A0000008080F0888888180020203F2020000077
:101A10000000808080808000006B9494949360002C
:101A200008F8008080800000203F210000203F2037
:101A300000809898000000000020203F2020000037
:101A4000000000809898000000C08080807F000027
:101A500008F8000080808000203F24022D30200004
:101A6000000808F8000000000020203F20200000AF
:101A70008080808080808000203F20003F20003FC9
:101A80008080008080800000203F210000203F20D7
:101A90000000808080800000001F202020201F0088
:101AA000808000808000000080FFA12020110E00B7
:101AB0000000008080808000000E112020A0FF80A8
:101AC000808080008080800020203F212000010055
:101AD00000008080808080000033242424241900AA
:101AE000008080E0808000000000001F20200000B7
:101AF0008080000000808000001F202020103F20F8
:101B0000808080000080808000010E300806010087
:101B100080800080008080800F300C030C300F002C
:101B200000808000808080000020312E0E31200057
:101B3000808080000080808080818E701806010087
:101B400000808080808080000021302C22213000A5
:101B500000000000807C020200000000003F4040C6
:101B600000000000FF00000000000000FF00000077
:101B70000002027C800000000040403F00000000A6
:101B80000006010102020404000000000000000041
:101B90000000000000000000000000000000000045
:101BA0000000000000000000000000000000000035
:101BB000000000000000000000F0F0F00000000055
:101BC0000000000000017F01000000000000000094
:101BD000001C1C1C0000000000008060301C8C6099
:101BE000301C0C000000000000000000000000009D
:101BF000000000000000000000000000000000E005
:101C00000000000000E000000086E69F86868686D1
:101C1000E69F860000011F01010101011F01010073
:101C2000000080C06020F820E0C000000000030732
:101C30000C18FF70E18100000000070F10107F10EA
:101C40000F0700008060206080000000E02000009E
:101C50000F3020309F70DC371030C0000000100EB5
:101C600003000718101807000000C02020E0C00083
:101C70000000000080E01F38E88703C43C04000037
:101C8000070F1810100B070D1010080000808C4C67
:101C9000380000000000000000000000000000000C
:101CA0000000000000000000000000000000000034
:101CB00000000000000080E0300804000000000088
:101CC00000FEFF0100000000000000000000030F04
:101CD0001820400000040830E080000000000000F0
:101CE0000000000001FFFE0000000000004020187E
:101CF0000F03000000000000000000000000C00012
:101D000000000000004266663C18FF183C66664210
:101D100000000000000003000000000000000000C0
:101D20000000800000000000001010101010FF10D4
:101D30001010101000000000000003000000000060
:101D40000000000000000000000000000000000093
:101D5000000000000000000000808C4C38000000F3
:101D60000000000000000000000000000000000073
:101D700000101010101010101010100000000000C3
:101D80000000000000000000000000000000000053
:101D90000000000000000000000000000000000043
:101DA00000001C1C1C0000000000000000000000DF
:101DB00000000000E0380C000000000080701C03F0
:101DC000000000000060380E01000000000000006C
:101DD000000080C060202060C080000000FEFF0185
:101DE0000000000001FFFE000001070E181010188F
:101DF0000E0701000000808080C0E00000000000AD
:101E00000000000000FFFF000000000000001010B4
:101E1000101F1F10101000000080402020202060A4
:101E2000C080000000030300804020381F0700002E
:101E3000001C1A1918181818181F00000080C0205C
:101E4000202060C080000000000303001010182F45
:101E5000E780000000070F10101010180F07000097
:101E6000000000000000C0E0F000000000C0B088EA
:101E7000868180FFFF808000000000000010101F9E
:101E80001F1010000000E060606060606060000093
:101E900000003F1008080818F0E0000000070B10D1
:101EA0001010101C0F030000000080C040202020F4
:101EB000E0C0000000FCFF211008080818F0E00056
:101EC0000001070C18101010080F03000000C0E0FC
:101ED0006060606060E06000000003000000E018E7
:101EE0000700000000000000001F1F0000000000AD
:101EF0000080C0602020202060C080000087EF2C80
:101F00001818303068CF830000070F081010101029
:101F1000180F07000000C0C020202020C080000053
:101F2000001F3F604040402010FFFE0000000C1CDE
:101F3000101010080F030000000000000000000057
:101F40000000000000000000000E0E0E0000000067
:101F500000000000001C1C1C00000000000000002D
:101F6000000000000000000000000000000C0C0059
:101F700000000000000000000058380000000000D1
:101F80000000000000000080402010000000102829
:101F90004482010000000000000000000000010277
:101FA0000408100000000000000000000000000015
:101FB00000848484848484848484840000000000F9
:101FC0000000000000000000000010204080000021
:101FD0000000000000000000000001824428100002
:101FE00000001008040201000000000000C02020D2
:101FF0001010101030E0C0000003030000F01008C3
:102000000C070300000000001C1C1C000000000066
:10201000000000C0406020202040C00000FCFF0104
:10202000F00E03C1FE03807F0001070E081111109E
:10203000110904020000000080E0E0000000000040
:102040000000807C4340477FF880000010181F107C
:1020500000000000131F1C1020E0E0202020206062
:10206000C080000000FFFF10101010182FE7800044
:10207000101F1F1010101010180F0700000080C054
:10208000402020202060E00000FCFF010000000054
:10209000000001000001070E1810101008040300D2
:1020A00020E0E02020202040C080000000FFFF0052
:1020B0000000000001FFFE00101F1F101010180884
:1020C0000E07010020E0E02020202020206080007A
:1020D00000FFFF101010107C00000000101F1F10E8
:1020E000101010101018060020E0E0202020202002
:1020F0006060800000FFFF101010107C00000100E5
:10210000101F1F100000000000000000000080C031
:102110006020202040E0000000FCFF010000404063
:10212000C0C140400001070E181010100F0F000032
:1021300020E0E0200000000020E0E02000FFFF1091
:102140001010101010FFFF00101F1F1000000000E3
:10215000101F1F100000202020E0E02020200000A1
:102160000000000000FFFF00000000000000101051
:10217000101F1F101010000000000000202020E0A1
:10218000E020202000000000000000FFFF00000011
:102190000060E0808080C07F3F00000020E0E02001
:1021A000000020A06020200000FFFF30187CE3C06A
:1021B00000000000101F1F10000001131F1C18104A
:1021C00020E0E020000000000000000000FFFF0011
:1021D0000000000000000000101F1F101010101061
:1021E0001018060020E0E0E000000000E0E0E02041
:1021F00000FF013FFEC0E01E01FFFF00101F1000A6
:10220000031F0300101F1F1020E0E0C000000000AB
:102210000020E02000FF0003071C78E08000FF00A2
:10222000101F100000000000030F1F00000080C0FE
:1022300060202060C080000000FEFF010000000060
:1022400000FFFE000001070E181010180C07010017
:1022500020E0E0202020202060C0800000FFFF2040
:1022600020202020301F0F00101F1F100000000032
:1022700000000000000080C060202060C0800000DE
:1022800000FEFF010000000000FFFE000001070E3D
:102290001111133C7C67210020E0E0202020202049
:1022A00060C0800000FFFF101030F0D0080F070062
:1022B000101F1F10000000030F1C10100080C060D2
:1022C000202020204040E00000070F0C181830307C
:1022D00060E08100001F0C0810101010180F07009C
:1022E0008060202020E0E0202020608001000000AD
:1022F00000FFFF000000000100000000101F1F1081
:102300000000000020E0E020000000000020E020AD
:1023100000FFFF00000000000000FF0000070F1892
:1023200010101010100807002060E0E020000000EE
:1023300020E060200000077FF88000807C03000020
:1023400000000000071F1C070000000020E0E02044
:1023500000E0E0200020E0200007FFF8E01FFFFC85
:10236000E01F00000000031F0300011F0300000026
:10237000002060E0A0000020E060200000000003DA
:102380008F7CF8C6010000000010181E1300011712
:102390001F1810002060E0E02000000020E0602016
:1023A000000001073EF8E0180700000000000010E0
:1023B000101F1F101000000000806020202020A0AF
:1023C000E0E0200000000000C0F03E0F030000002D
:1023D00000101C1F1710101010180600000000003D
:1023E00000FC0404040404000000000000FF0000DE
:1023F0000000000000000000007F4040404040001E
:10240000000010E0000000000000000000000000DC
:10241000031C6080000000000000000000000003BA
:102420000C70800000000404040404FC00000000A0
:1024300000000000000000FF00000000000040401D
:102440004040407F0000000000000010080C040C19
:102450000810000000000000000000000000000064
:10246000000000000000000000000000000000006C
:10247000000000000000000000000000000000005C
:10248000000000008080808080808080808080804C
:102490000000000404080800000000000000000024
:1024A000000000000000000000000000000000002C
:1024B000000000000000000000000000000000001C
:1024C000000098D844642424FCF80000000F1F1872
:1024D000101010081F1F10180020E0F0000000006E
:1024E000000000000000FFFF180804040CF8F000D2
:1024F00000001F0F18101010180F0300000000003C
:10250000000000000000000000E0F8180404043C93
:102510003800000000030F0C101010100806000017
:102520000000000000000020E0F0000000E0F81CC7
:1025300004040408FFFF000000030F181010100827
:102540001F0F080000000000000000000000000055
:102550000000E0F8484444444C7870000000030F49
:102560000C181010100804000000000080C060204B
:1025700020E0C00000040404FFFF04040404000081
:10258000000010101F1F10101000000000000000BD
:102590000000000000000000000070F88C04048CB3
:1025A000F874040C007076CF8D8D8D89C87870001A
:1025B0000020E0F000000000000000000000FFFF2D
:1025C00008040404FCF8000000101F1F1000001095
:1025D0001F1F1000000000000060600000000000ED
:1025E0000000040404FCFC000000000000001010C7
:1025F000101F1F10101000000000000000000060FD
:102600006000000000000000040404FCFC00000066
:102610000000C0C08080C07F3F0000000020E0F0CC
:1026200000000000000000000000FFFF80C0F41C5C
:102630000404000000101F1F1100031F1C101000D5
:102640000000202020E0F00000000000000000005A
:1026500000FFFF000000000000001010101F1F10FE
:10266000101000000000000000000000000000004A
:1026700004FCFC0804FCFC0804FCFC00101F1F10F8
:10268000001F1F10001F1F100000000000000000AE
:10269000000000000004FCFC08080404FCF8000032
:1026A00000101F1F100000101F1F1000000000006E
:1026B000000000000000000000E0F0180C04040C12
:1026C00018F0E00000030F0C101010100C0F0300A6
:1026D0000000000000000000000000000004FCFCFE
:1026E000080404040CF8F0000080FFFF889010102C
:1026F0001C0F0300000000000000000000000000AC
:1027000000E0F81C04040408F8FC000000030F18A3
:1027100010109088FFFF8000000000000000000003
:1027200000000000040404FCFC100804040C0C006D
:102730001010101F1F1010100000000000000000FB
:10274000000000000000000000003078CCC4848449
:10275000840C1C0000001E1810101011190F060028
:102760000000000000C0000000000000000404049D
:10277000FFFF040404000000000000000F1F101001
:10278000100C00000000000000000000000000002D
:102790000004FCFE00000004FCFE000000000F1F0F
:1027A000181010081F0F08000000000000000000B3
:1027B0000000000000040C3CFCC40000C43C0C04FD
:1027C00000000000010F1E0E0100000000000000CC
:1027D0000000000000000000043CFCC400E47CFC9D
:1027E00084807C040000071F070000071F0700000B
:1027F0000000000000000000000000000004041CB5
:102800007CE4C0341C0404000010101C1601131FCB
:102810001C18100000000000000000000000000074
:1028200000040C3CFCC400C43C0404000000C08054
:10283000C1370E0100000000000000000000000091
:102840000000000000001C0404C4F47C1C04000010
:102850000000101C1F17111010180E0000000000BF
:10286000000000F80C04000000000000001028EF39
:1028700000000000000000000000003F6040000079
:10288000000000000000FF00000000000000000049
:102890000000FF0000000000000000000000FF003A
:1028A000000000000000040CF80000000000000020
:1028B00000000000EF281000000000000000406051
:1028C0003F0000000000000000180602020408108B
:1028D0002020300800000000000000000000000080
:1028E0000000000000000000000000000000F010E8
:1028F000101010FF10101010F000000000000F0466
:10290000040404FF040404040F0000004040405F7E
:10291000555555755555555F404040000040200FB6
:10292000094989790909090F2040000000FE024287
:102930004ACA4A4ACA4A4A4202FE000000FF4050C0
:102940004C4340404F50505C40FF00000000F8886E
:10295000888888FF88888888F800000000001F08A1
:102960000808087F888888889F80F000808282829B
:10297000828282E2A2928A86828080000000000029
:102980000040807F0000000000000000101010FFD9
:10299000109008888888FF88888808000444827F0F
:1029A00001808040432C10284681800000101010C8
:1029B00010D030FF30D0121C10100000100804029C
:1029C000010000FF00000102040810000404048458
:1029D000E43C2724242424E4040404000402010029
:1029E000FF0909090949897F0000000000FE225AF9
:1029F0008600FE9292929292FE00000000FF040870
:102A00000700FF4020030C142241400000804020BA
:102A10001806800007182040800000000100207088
:102A20002826212020243860000101000010129285
:102A30009292929292121202FE0000000000003F59
:102A4000101010103F0040807F000000000000C008
:102A500080808080808080FC84808080808080C0B6
:102A6000C0000000000000FF7F404040404040FFA9
:102A700040404040404040FF7F0000000000000018
:102A8000000000000000007F700000000000000057
:102A90000000000000000000000000000000000036
:102AA000000000FCF8000000000000000000000032
:102AB0000000000000000000FFFE0202020202020D
:102AC000020202FFFF020202020202020202FF03EE
:102AD00000000000000000001F1F040404040404A0
:102AE000040404FFFF0404040404040404041F0099
:102AF00000000000000000000000000000000000D6
:102B00000000007F3F000000000000000000000007
:102B100000000000000000000000000000000000B5
:102B200000000000000000000000000000000000A5
:102B300000F8F8F0F0702000000000000000000035
:102B40000000000000000000000000000000000085
:102B500000000000000000000000000080000000F5
:102B60000000000000000000000000000000000065
:102B700000FFFFFFFF000000000000000000000059
:102B80000000000000000000808000000000000045
:102B900000000000000000000000000000FFFFFE39
:102BA00006060606060606060606060606060606C5
:102BB00006FFFFFFFF0606060606060606060606D1
:102BC00006060606060606FFFFFFFF0702000000D6
:102BD00000000000000000000000000000FFFFFFF8
:102BE00000000000000000000000000000000000E5
:102BF00000FFFFFFFF0000000000000000000000D9
:102C000000000000000000FFFFFFFF0000000000C8
:102C100000000000000000000000000000FFFFFFB7
:102C20001818181818181818181818181818181824
:102C300018FFFFFFFF181818181818181818181878
:102C400018181818181818FFFFFFFF0000000000E0
:102C50000000000000000000000000000201010070
:102C60000000000000000000000000000000000064
:102C700000FFFFFFFF000000000000000000000058
:102C80000000000000000001010000000000000042
:102C90000000000000000000000000000000000034
:102CA0000000000000000000000000000000000024
:102CB00000FFFFFFFF000000000000000000000018
:102CC0000000000000000000000000000000000004
:102CD00000000000000000000000000000000000F4
:102CE00000000000000000000000000000000000E4
:102CF000001F1F0F0F000000000000000000000078
:102D000000000000000000000000000000000000C3
:102D100000000000342D000800000020080400001E
:102D20000C020008502E000808040020480900008A
:102D3000820C000811100A03050911FF118905C34F
:102D400012E012F072F8073D4428FF11AA44700BFC
:102D50008301384482929274018328087C44FF01E5
:102D60007D7D7D044905647D01FF9A0102818A0110
:102D70000B013669419949FA0101011D38083F3FAD
:102D80000303F31311011E01F1116181312D8161E2
:102D900011F1393B4141072C01C1211EAB21C11466
:102DA000390139360738D33303033F3F23E0E06A64
:102DB0007FA81A7FBF4C0618060A213640407F4084
:102DC000401C1F204001AB201F14113A600E6C30D4
:102DD0000C034601361C0707060178090404048425
:102DE00044444484071C0484C405790E09110A79FB
:102DF000112940034107072610181412112E0F1035
:102E000010100F0F331F1026081012120D22186B0E
:102E10000D120A5929590701605A8001013D200805
:102E20007F030C300C037F2538545458257C040450
:102E30007805223C40407C17FFAAAAAA28080A2C41
:102E4000FF681E2649494932101D020408100F71FF
:04000005080001AD41
:00000001FF
